{
  "contractName": "KmutnbToken",
  "abi": [
    {
      "inputs": [
        {
          "internalType": "address",
          "name": "owner",
          "type": "address"
        }
      ],
      "stateMutability": "nonpayable",
      "type": "constructor"
    },
    {
      "anonymous": false,
      "inputs": [
        {
          "indexed": true,
          "internalType": "address",
          "name": "owner",
          "type": "address"
        },
        {
          "indexed": true,
          "internalType": "address",
          "name": "spender",
          "type": "address"
        },
        {
          "indexed": false,
          "internalType": "uint256",
          "name": "value",
          "type": "uint256"
        }
      ],
      "name": "Approval",
      "type": "event"
    },
    {
      "anonymous": false,
      "inputs": [
        {
          "indexed": true,
          "internalType": "bytes32",
          "name": "role",
          "type": "bytes32"
        },
        {
          "indexed": true,
          "internalType": "bytes32",
          "name": "previousAdminRole",
          "type": "bytes32"
        },
        {
          "indexed": true,
          "internalType": "bytes32",
          "name": "newAdminRole",
          "type": "bytes32"
        }
      ],
      "name": "RoleAdminChanged",
      "type": "event"
    },
    {
      "anonymous": false,
      "inputs": [
        {
          "indexed": true,
          "internalType": "bytes32",
          "name": "role",
          "type": "bytes32"
        },
        {
          "indexed": true,
          "internalType": "address",
          "name": "account",
          "type": "address"
        },
        {
          "indexed": true,
          "internalType": "address",
          "name": "sender",
          "type": "address"
        }
      ],
      "name": "RoleGranted",
      "type": "event"
    },
    {
      "anonymous": false,
      "inputs": [
        {
          "indexed": true,
          "internalType": "bytes32",
          "name": "role",
          "type": "bytes32"
        },
        {
          "indexed": true,
          "internalType": "address",
          "name": "account",
          "type": "address"
        },
        {
          "indexed": true,
          "internalType": "address",
          "name": "sender",
          "type": "address"
        }
      ],
      "name": "RoleRevoked",
      "type": "event"
    },
    {
      "anonymous": false,
      "inputs": [
        {
          "indexed": true,
          "internalType": "address",
          "name": "from",
          "type": "address"
        },
        {
          "indexed": true,
          "internalType": "address",
          "name": "to",
          "type": "address"
        },
        {
          "indexed": false,
          "internalType": "uint256",
          "name": "value",
          "type": "uint256"
        }
      ],
      "name": "Transfer",
      "type": "event"
    },
    {
      "inputs": [],
      "name": "DEFAULT_ADMIN_ROLE",
      "outputs": [
        {
          "internalType": "bytes32",
          "name": "",
          "type": "bytes32"
        }
      ],
      "stateMutability": "view",
      "type": "function",
      "constant": true
    },
    {
      "inputs": [],
      "name": "MINTER_ROLE",
      "outputs": [
        {
          "internalType": "bytes32",
          "name": "",
          "type": "bytes32"
        }
      ],
      "stateMutability": "view",
      "type": "function",
      "constant": true
    },
    {
      "inputs": [
        {
          "internalType": "address",
          "name": "owner",
          "type": "address"
        },
        {
          "internalType": "address",
          "name": "spender",
          "type": "address"
        }
      ],
      "name": "allowance",
      "outputs": [
        {
          "internalType": "uint256",
          "name": "",
          "type": "uint256"
        }
      ],
      "stateMutability": "view",
      "type": "function",
      "constant": true
    },
    {
      "inputs": [
        {
          "internalType": "address",
          "name": "spender",
          "type": "address"
        },
        {
          "internalType": "uint256",
          "name": "amount",
          "type": "uint256"
        }
      ],
      "name": "approve",
      "outputs": [
        {
          "internalType": "bool",
          "name": "",
          "type": "bool"
        }
      ],
      "stateMutability": "nonpayable",
      "type": "function"
    },
    {
      "inputs": [
        {
          "internalType": "address",
          "name": "account",
          "type": "address"
        }
      ],
      "name": "balanceOf",
      "outputs": [
        {
          "internalType": "uint256",
          "name": "",
          "type": "uint256"
        }
      ],
      "stateMutability": "view",
      "type": "function",
      "constant": true
    },
    {
      "inputs": [
        {
          "internalType": "uint256",
          "name": "amount",
          "type": "uint256"
        }
      ],
      "name": "burn",
      "outputs": [],
      "stateMutability": "nonpayable",
      "type": "function"
    },
    {
      "inputs": [
        {
          "internalType": "address",
          "name": "account",
          "type": "address"
        },
        {
          "internalType": "uint256",
          "name": "amount",
          "type": "uint256"
        }
      ],
      "name": "burnFrom",
      "outputs": [],
      "stateMutability": "nonpayable",
      "type": "function"
    },
    {
      "inputs": [],
      "name": "decimals",
      "outputs": [
        {
          "internalType": "uint8",
          "name": "",
          "type": "uint8"
        }
      ],
      "stateMutability": "view",
      "type": "function",
      "constant": true
    },
    {
      "inputs": [
        {
          "internalType": "address",
          "name": "spender",
          "type": "address"
        },
        {
          "internalType": "uint256",
          "name": "subtractedValue",
          "type": "uint256"
        }
      ],
      "name": "decreaseAllowance",
      "outputs": [
        {
          "internalType": "bool",
          "name": "",
          "type": "bool"
        }
      ],
      "stateMutability": "nonpayable",
      "type": "function"
    },
    {
      "inputs": [
        {
          "internalType": "bytes32",
          "name": "role",
          "type": "bytes32"
        }
      ],
      "name": "getRoleAdmin",
      "outputs": [
        {
          "internalType": "bytes32",
          "name": "",
          "type": "bytes32"
        }
      ],
      "stateMutability": "view",
      "type": "function",
      "constant": true
    },
    {
      "inputs": [
        {
          "internalType": "bytes32",
          "name": "role",
          "type": "bytes32"
        },
        {
          "internalType": "address",
          "name": "account",
          "type": "address"
        }
      ],
      "name": "grantRole",
      "outputs": [],
      "stateMutability": "nonpayable",
      "type": "function"
    },
    {
      "inputs": [
        {
          "internalType": "bytes32",
          "name": "role",
          "type": "bytes32"
        },
        {
          "internalType": "address",
          "name": "account",
          "type": "address"
        }
      ],
      "name": "hasRole",
      "outputs": [
        {
          "internalType": "bool",
          "name": "",
          "type": "bool"
        }
      ],
      "stateMutability": "view",
      "type": "function",
      "constant": true
    },
    {
      "inputs": [
        {
          "internalType": "address",
          "name": "spender",
          "type": "address"
        },
        {
          "internalType": "uint256",
          "name": "addedValue",
          "type": "uint256"
        }
      ],
      "name": "increaseAllowance",
      "outputs": [
        {
          "internalType": "bool",
          "name": "",
          "type": "bool"
        }
      ],
      "stateMutability": "nonpayable",
      "type": "function"
    },
    {
      "inputs": [],
      "name": "name",
      "outputs": [
        {
          "internalType": "string",
          "name": "",
          "type": "string"
        }
      ],
      "stateMutability": "view",
      "type": "function",
      "constant": true
    },
    {
      "inputs": [
        {
          "internalType": "bytes32",
          "name": "role",
          "type": "bytes32"
        },
        {
          "internalType": "address",
          "name": "account",
          "type": "address"
        }
      ],
      "name": "renounceRole",
      "outputs": [],
      "stateMutability": "nonpayable",
      "type": "function"
    },
    {
      "inputs": [
        {
          "internalType": "bytes32",
          "name": "role",
          "type": "bytes32"
        },
        {
          "internalType": "address",
          "name": "account",
          "type": "address"
        }
      ],
      "name": "revokeRole",
      "outputs": [],
      "stateMutability": "nonpayable",
      "type": "function"
    },
    {
      "inputs": [
        {
          "internalType": "bytes4",
          "name": "interfaceId",
          "type": "bytes4"
        }
      ],
      "name": "supportsInterface",
      "outputs": [
        {
          "internalType": "bool",
          "name": "",
          "type": "bool"
        }
      ],
      "stateMutability": "view",
      "type": "function",
      "constant": true
    },
    {
      "inputs": [],
      "name": "symbol",
      "outputs": [
        {
          "internalType": "string",
          "name": "",
          "type": "string"
        }
      ],
      "stateMutability": "view",
      "type": "function",
      "constant": true
    },
    {
      "inputs": [],
      "name": "totalSupply",
      "outputs": [
        {
          "internalType": "uint256",
          "name": "",
          "type": "uint256"
        }
      ],
      "stateMutability": "view",
      "type": "function",
      "constant": true
    },
    {
      "inputs": [
        {
          "internalType": "address",
          "name": "to",
          "type": "address"
        },
        {
          "internalType": "uint256",
          "name": "amount",
          "type": "uint256"
        }
      ],
      "name": "transfer",
      "outputs": [
        {
          "internalType": "bool",
          "name": "",
          "type": "bool"
        }
      ],
      "stateMutability": "nonpayable",
      "type": "function"
    },
    {
      "inputs": [
        {
          "internalType": "address",
          "name": "from",
          "type": "address"
        },
        {
          "internalType": "address",
          "name": "to",
          "type": "address"
        },
        {
          "internalType": "uint256",
          "name": "amount",
          "type": "uint256"
        }
      ],
      "name": "transferFrom",
      "outputs": [
        {
          "internalType": "bool",
          "name": "",
          "type": "bool"
        }
      ],
      "stateMutability": "nonpayable",
      "type": "function"
    },
    {
      "inputs": [
        {
          "internalType": "address",
          "name": "to",
          "type": "address"
        },
        {
          "internalType": "uint256",
          "name": "amount",
          "type": "uint256"
        }
      ],
      "name": "mint",
      "outputs": [],
      "stateMutability": "nonpayable",
      "type": "function"
    },
    {
      "inputs": [
        {
          "internalType": "address",
          "name": "minter",
          "type": "address"
        }
      ],
      "name": "addMinter",
      "outputs": [],
      "stateMutability": "nonpayable",
      "type": "function"
    }
  ],
  "bytecode": "0x608060405234801562000010575f80fd5b5060405162002d7938038062002d79833981810160405281019062000036919062000449565b60405180606001604052806036815260200162002d43603691396040518060400160405280600681526020017f4b4d55544e4200000000000000000000000000000000000000000000000000008152506a18d0bf423c03d8de0000008383838160039081620000a69190620006dd565b508060049081620000b89190620006dd565b505050620000cd81836200011e60201b60201c565b50505050620000e55f801b826200028360201b60201c565b620001177f9f2df0fed2c77648de5860a4cc508cd0818c85b8b8a1ab4ceeef8d981c8956a6826200028360201b60201c565b50620008d2565b5f73ffffffffffffffffffffffffffffffffffffffff168273ffffffffffffffffffffffffffffffffffffffff16036200018f576040517f08c379a000000000000000000000000000000000000000000000000000000000815260040162000186906200081f565b60405180910390fd5b620001a25f83836200036f60201b60201c565b8060025f828254620001b591906200086c565b92505081905550805f808473ffffffffffffffffffffffffffffffffffffffff1673ffffffffffffffffffffffffffffffffffffffff1681526020019081526020015f205f82825401925050819055508173ffffffffffffffffffffffffffffffffffffffff165f73ffffffffffffffffffffffffffffffffffffffff167fddf252ad1be2c89b69c2b068fc378daa952ba7f163c4a11628f55a4df523b3ef83604051620002649190620008b7565b60405180910390a36200027f5f83836200037460201b60201c565b5050565b6200029582826200037960201b60201c565b6200036b57600160055f8481526020019081526020015f205f015f8373ffffffffffffffffffffffffffffffffffffffff1673ffffffffffffffffffffffffffffffffffffffff1681526020019081526020015f205f6101000a81548160ff02191690831515021790555062000310620003dd60201b60201c565b73ffffffffffffffffffffffffffffffffffffffff168173ffffffffffffffffffffffffffffffffffffffff16837f2f8788117e7eff1d82e926ec794901d17c78024a50270940304540a733656f0d60405160405180910390a45b5050565b505050565b505050565b5f60055f8481526020019081526020015f205f015f8373ffffffffffffffffffffffffffffffffffffffff1673ffffffffffffffffffffffffffffffffffffffff1681526020019081526020015f205f9054906101000a900460ff16905092915050565b5f33905090565b5f80fd5b5f73ffffffffffffffffffffffffffffffffffffffff82169050919050565b5f6200041382620003e8565b9050919050565b620004258162000407565b811462000430575f80fd5b50565b5f8151905062000443816200041a565b92915050565b5f60208284031215620004615762000460620003e4565b5b5f620004708482850162000433565b91505092915050565b5f81519050919050565b7f4e487b71000000000000000000000000000000000000000000000000000000005f52604160045260245ffd5b7f4e487b71000000000000000000000000000000000000000000000000000000005f52602260045260245ffd5b5f6002820490506001821680620004f557607f821691505b6020821081036200050b576200050a620004b0565b5b50919050565b5f819050815f5260205f209050919050565b5f6020601f8301049050919050565b5f82821b905092915050565b5f600883026200056f7fffffffffffffffffffffffffffffffffffffffffffffffffffffffffffffffff8262000532565b6200057b868362000532565b95508019841693508086168417925050509392505050565b5f819050919050565b5f819050919050565b5f620005c5620005bf620005b98462000593565b6200059c565b62000593565b9050919050565b5f819050919050565b620005e083620005a5565b620005f8620005ef82620005cc565b8484546200053e565b825550505050565b5f90565b6200060e62000600565b6200061b818484620005d5565b505050565b5b818110156200064257620006365f8262000604565b60018101905062000621565b5050565b601f82111562000691576200065b8162000511565b620006668462000523565b8101602085101562000676578190505b6200068e620006858562000523565b83018262000620565b50505b505050565b5f82821c905092915050565b5f620006b35f198460080262000696565b1980831691505092915050565b5f620006cd8383620006a2565b9150826002028217905092915050565b620006e88262000479565b67ffffffffffffffff81111562000704576200070362000483565b5b620007108254620004dd565b6200071d82828562000646565b5f60209050601f83116001811462000753575f84156200073e578287015190505b6200074a8582620006c0565b865550620007b9565b601f198416620007638662000511565b5f5b828110156200078c5784890151825560018201915060208501945060208101905062000765565b86831015620007ac5784890151620007a8601f891682620006a2565b8355505b6001600288020188555050505b505050505050565b5f82825260208201905092915050565b7f45524332303a206d696e7420746f20746865207a65726f2061646472657373005f82015250565b5f62000807601f83620007c1565b91506200081482620007d1565b602082019050919050565b5f6020820190508181035f8301526200083881620007f9565b9050919050565b7f4e487b71000000000000000000000000000000000000000000000000000000005f52601160045260245ffd5b5f620008788262000593565b9150620008858362000593565b9250828201905080821115620008a0576200089f6200083f565b5b92915050565b620008b18162000593565b82525050565b5f602082019050620008cc5f830184620008a6565b92915050565b61246380620008e05f395ff3fe608060405234801561000f575f80fd5b506004361061014b575f3560e01c806342966c68116100c1578063a217fddf1161007a578063a217fddf146103bf578063a457c2d7146103dd578063a9059cbb1461040d578063d53913931461043d578063d547741f1461045b578063dd62ed3e146104775761014b565b806342966c68146102ed57806370a082311461030957806379cc67901461033957806391d148541461035557806395d89b4114610385578063983b2d56146103a35761014b565b8063248a9ca311610113578063248a9ca31461021b5780632f2ff15d1461024b578063313ce5671461026757806336568abe1461028557806339509351146102a157806340c10f19146102d15761014b565b806301ffc9a71461014f57806306fdde031461017f578063095ea7b31461019d57806318160ddd146101cd57806323b872dd146101eb575b5f80fd5b6101696004803603810190610164919061179a565b6104a7565b60405161017691906117df565b60405180910390f35b610187610520565b6040516101949190611882565b60405180910390f35b6101b760048036038101906101b2919061192f565b6105b0565b6040516101c491906117df565b60405180910390f35b6101d56105d2565b6040516101e2919061197c565b60405180910390f35b61020560048036038101906102009190611995565b6105db565b60405161021291906117df565b60405180910390f35b61023560048036038101906102309190611a18565b610609565b6040516102429190611a52565b60405180910390f35b61026560048036038101906102609190611a6b565b610626565b005b61026f610647565b60405161027c9190611ac4565b60405180910390f35b61029f600480360381019061029a9190611a6b565b61064f565b005b6102bb60048036038101906102b6919061192f565b6106d2565b6040516102c891906117df565b60405180910390f35b6102eb60048036038101906102e6919061192f565b610708565b005b61030760048036038101906103029190611add565b610741565b005b610323600480360381019061031e9190611b08565b610755565b604051610330919061197c565b60405180910390f35b610353600480360381019061034e919061192f565b61079a565b005b61036f600480360381019061036a9190611a6b565b6107ba565b60405161037c91906117df565b60405180910390f35b61038d61081e565b60405161039a9190611882565b60405180910390f35b6103bd60048036038101906103b89190611b08565b6108ae565b005b6103c76108e8565b6040516103d49190611a52565b60405180910390f35b6103f760048036038101906103f2919061192f565b6108ee565b60405161040491906117df565b60405180910390f35b6104276004803603810190610422919061192f565b610963565b60405161043491906117df565b60405180910390f35b610445610985565b6040516104529190611a52565b60405180910390f35b61047560048036038101906104709190611a6b565b6109a9565b005b610491600480360381019061048c9190611b33565b6109ca565b60405161049e919061197c565b60405180910390f35b5f7f7965db0b000000000000000000000000000000000000000000000000000000007bffffffffffffffffffffffffffffffffffffffffffffffffffffffff1916827bffffffffffffffffffffffffffffffffffffffffffffffffffffffff19161480610519575061051882610a4c565b5b9050919050565b60606003805461052f90611b9e565b80601f016020809104026020016040519081016040528092919081815260200182805461055b90611b9e565b80156105a65780601f1061057d576101008083540402835291602001916105a6565b820191905f5260205f20905b81548152906001019060200180831161058957829003601f168201915b5050505050905090565b5f806105ba610ab5565b90506105c7818585610abc565b600191505092915050565b5f600254905090565b5f806105e5610ab5565b90506105f2858285610c7f565b6105fd858585610d0a565b60019150509392505050565b5f60055f8381526020019081526020015f20600101549050919050565b61062f82610609565b61063881610f76565b6106428383610f8a565b505050565b5f6012905090565b610657610ab5565b73ffffffffffffffffffffffffffffffffffffffff168173ffffffffffffffffffffffffffffffffffffffff16146106c4576040517f08c379a00000000000000000000000000000000000000000000000000000000081526004016106bb90611c3e565b60405180910390fd5b6106ce8282611065565b5050565b5f806106dc610ab5565b90506106fd8185856106ee85896109ca565b6106f89190611c89565b610abc565b600191505092915050565b7f9f2df0fed2c77648de5860a4cc508cd0818c85b8b8a1ab4ceeef8d981c8956a661073281610f76565b61073c8383611140565b505050565b61075261074c610ab5565b8261128e565b50565b5f805f8373ffffffffffffffffffffffffffffffffffffffff1673ffffffffffffffffffffffffffffffffffffffff1681526020019081526020015f20549050919050565b6107ac826107a6610ab5565b83610c7f565b6107b6828261128e565b5050565b5f60055f8481526020019081526020015f205f015f8373ffffffffffffffffffffffffffffffffffffffff1673ffffffffffffffffffffffffffffffffffffffff1681526020019081526020015f205f9054906101000a900460ff16905092915050565b60606004805461082d90611b9e565b80601f016020809104026020016040519081016040528092919081815260200182805461085990611b9e565b80156108a45780601f1061087b576101008083540402835291602001916108a4565b820191905f5260205f20905b81548152906001019060200180831161088757829003601f168201915b5050505050905090565b5f801b6108ba81610f76565b6108e47f9f2df0fed2c77648de5860a4cc508cd0818c85b8b8a1ab4ceeef8d981c8956a683610626565b5050565b5f801b81565b5f806108f8610ab5565b90505f61090582866109ca565b90508381101561094a576040517f08c379a000000000000000000000000000000000000000000000000000000000815260040161094190611d2c565b60405180910390fd5b6109578286868403610abc565b60019250505092915050565b5f8061096d610ab5565b905061097a818585610d0a565b600191505092915050565b7f9f2df0fed2c77648de5860a4cc508cd0818c85b8b8a1ab4ceeef8d981c8956a681565b6109b282610609565b6109bb81610f76565b6109c58383611065565b505050565b5f60015f8473ffffffffffffffffffffffffffffffffffffffff1673ffffffffffffffffffffffffffffffffffffffff1681526020019081526020015f205f8373ffffffffffffffffffffffffffffffffffffffff1673ffffffffffffffffffffffffffffffffffffffff1681526020019081526020015f2054905092915050565b5f7f01ffc9a7000000000000000000000000000000000000000000000000000000007bffffffffffffffffffffffffffffffffffffffffffffffffffffffff1916827bffffffffffffffffffffffffffffffffffffffffffffffffffffffff1916149050919050565b5f33905090565b5f73ffffffffffffffffffffffffffffffffffffffff168373ffffffffffffffffffffffffffffffffffffffff1603610b2a576040517f08c379a0000000000000000000000000000000000000000000000000000000008152600401610b2190611dba565b60405180910390fd5b5f73ffffffffffffffffffffffffffffffffffffffff168273ffffffffffffffffffffffffffffffffffffffff1603610b98576040517f08c379a0000000000000000000000000000000000000000000000000000000008152600401610b8f90611e48565b60405180910390fd5b8060015f8573ffffffffffffffffffffffffffffffffffffffff1673ffffffffffffffffffffffffffffffffffffffff1681526020019081526020015f205f8473ffffffffffffffffffffffffffffffffffffffff1673ffffffffffffffffffffffffffffffffffffffff1681526020019081526020015f20819055508173ffffffffffffffffffffffffffffffffffffffff168373ffffffffffffffffffffffffffffffffffffffff167f8c5be1e5ebec7d5bd14f71427d1e84f3dd0314c0f7b2291e5b200ac8c7c3b92583604051610c72919061197c565b60405180910390a3505050565b5f610c8a84846109ca565b90507fffffffffffffffffffffffffffffffffffffffffffffffffffffffffffffffff8114610d045781811015610cf6576040517f08c379a0000000000000000000000000000000000000000000000000000000008152600401610ced90611eb0565b60405180910390fd5b610d038484848403610abc565b5b50505050565b5f73ffffffffffffffffffffffffffffffffffffffff168373ffffffffffffffffffffffffffffffffffffffff1603610d78576040517f08c379a0000000000000000000000000000000000000000000000000000000008152600401610d6f90611f3e565b60405180910390fd5b5f73ffffffffffffffffffffffffffffffffffffffff168273ffffffffffffffffffffffffffffffffffffffff1603610de6576040517f08c379a0000000000000000000000000000000000000000000000000000000008152600401610ddd90611fcc565b60405180910390fd5b610df1838383611451565b5f805f8573ffffffffffffffffffffffffffffffffffffffff1673ffffffffffffffffffffffffffffffffffffffff1681526020019081526020015f2054905081811015610e74576040517f08c379a0000000000000000000000000000000000000000000000000000000008152600401610e6b9061205a565b60405180910390fd5b8181035f808673ffffffffffffffffffffffffffffffffffffffff1673ffffffffffffffffffffffffffffffffffffffff1681526020019081526020015f2081905550815f808573ffffffffffffffffffffffffffffffffffffffff1673ffffffffffffffffffffffffffffffffffffffff1681526020019081526020015f205f82825401925050819055508273ffffffffffffffffffffffffffffffffffffffff168473ffffffffffffffffffffffffffffffffffffffff167fddf252ad1be2c89b69c2b068fc378daa952ba7f163c4a11628f55a4df523b3ef84604051610f5d919061197c565b60405180910390a3610f70848484611456565b50505050565b610f8781610f82610ab5565b61145b565b50565b610f9482826107ba565b61106157600160055f8481526020019081526020015f205f015f8373ffffffffffffffffffffffffffffffffffffffff1673ffffffffffffffffffffffffffffffffffffffff1681526020019081526020015f205f6101000a81548160ff021916908315150217905550611006610ab5565b73ffffffffffffffffffffffffffffffffffffffff168173ffffffffffffffffffffffffffffffffffffffff16837f2f8788117e7eff1d82e926ec794901d17c78024a50270940304540a733656f0d60405160405180910390a45b5050565b61106f82826107ba565b1561113c575f60055f8481526020019081526020015f205f015f8373ffffffffffffffffffffffffffffffffffffffff1673ffffffffffffffffffffffffffffffffffffffff1681526020019081526020015f205f6101000a81548160ff0219169083151502179055506110e1610ab5565b73ffffffffffffffffffffffffffffffffffffffff168173ffffffffffffffffffffffffffffffffffffffff16837ff6391f5c32d9c69d2a47ea670b442974b53935d1edc7fd64eb21e047a839171b60405160405180910390a45b5050565b5f73ffffffffffffffffffffffffffffffffffffffff168273ffffffffffffffffffffffffffffffffffffffff16036111ae576040517f08c379a00000000000000000000000000000000000000000000000000000000081526004016111a5906120c2565b60405180910390fd5b6111b95f8383611451565b8060025f8282546111ca9190611c89565b92505081905550805f808473ffffffffffffffffffffffffffffffffffffffff1673ffffffffffffffffffffffffffffffffffffffff1681526020019081526020015f205f82825401925050819055508173ffffffffffffffffffffffffffffffffffffffff165f73ffffffffffffffffffffffffffffffffffffffff167fddf252ad1be2c89b69c2b068fc378daa952ba7f163c4a11628f55a4df523b3ef83604051611277919061197c565b60405180910390a361128a5f8383611456565b5050565b5f73ffffffffffffffffffffffffffffffffffffffff168273ffffffffffffffffffffffffffffffffffffffff16036112fc576040517f08c379a00000000000000000000000000000000000000000000000000000000081526004016112f390612150565b60405180910390fd5b611307825f83611451565b5f805f8473ffffffffffffffffffffffffffffffffffffffff1673ffffffffffffffffffffffffffffffffffffffff1681526020019081526020015f205490508181101561138a576040517f08c379a0000000000000000000000000000000000000000000000000000000008152600401611381906121de565b60405180910390fd5b8181035f808573ffffffffffffffffffffffffffffffffffffffff1673ffffffffffffffffffffffffffffffffffffffff1681526020019081526020015f20819055508160025f82825403925050819055505f73ffffffffffffffffffffffffffffffffffffffff168373ffffffffffffffffffffffffffffffffffffffff167fddf252ad1be2c89b69c2b068fc378daa952ba7f163c4a11628f55a4df523b3ef84604051611439919061197c565b60405180910390a361144c835f84611456565b505050565b505050565b505050565b61146582826107ba565b6114db57611472816114df565b61147f835f1c602061150c565b6040516020016114909291906122ca565b6040516020818303038152906040526040517f08c379a00000000000000000000000000000000000000000000000000000000081526004016114d29190611882565b60405180910390fd5b5050565b60606115058273ffffffffffffffffffffffffffffffffffffffff16601460ff1661150c565b9050919050565b60605f600283600261151e9190612303565b6115289190611c89565b67ffffffffffffffff81111561154157611540612344565b5b6040519080825280601f01601f1916602001820160405280156115735781602001600182028036833780820191505090505b5090507f3000000000000000000000000000000000000000000000000000000000000000815f815181106115aa576115a9612371565b5b60200101907effffffffffffffffffffffffffffffffffffffffffffffffffffffffffffff191690815f1a9053507f78000000000000000000000000000000000000000000000000000000000000008160018151811061160d5761160c612371565b5b60200101907effffffffffffffffffffffffffffffffffffffffffffffffffffffffffffff191690815f1a9053505f600184600261164b9190612303565b6116559190611c89565b90505b60018111156116f4577f3031323334353637383961626364656600000000000000000000000000000000600f86166010811061169757611696612371565b5b1a60f81b8282815181106116ae576116ad612371565b5b60200101907effffffffffffffffffffffffffffffffffffffffffffffffffffffffffffff191690815f1a905350600485901c9450806116ed9061239e565b9050611658565b505f8414611737576040517f08c379a000000000000000000000000000000000000000000000000000000000815260040161172e9061240f565b60405180910390fd5b8091505092915050565b5f80fd5b5f7fffffffff0000000000000000000000000000000000000000000000000000000082169050919050565b61177981611745565b8114611783575f80fd5b50565b5f8135905061179481611770565b92915050565b5f602082840312156117af576117ae611741565b5b5f6117bc84828501611786565b91505092915050565b5f8115159050919050565b6117d9816117c5565b82525050565b5f6020820190506117f25f8301846117d0565b92915050565b5f81519050919050565b5f82825260208201905092915050565b5f5b8381101561182f578082015181840152602081019050611814565b5f8484015250505050565b5f601f19601f8301169050919050565b5f611854826117f8565b61185e8185611802565b935061186e818560208601611812565b6118778161183a565b840191505092915050565b5f6020820190508181035f83015261189a818461184a565b905092915050565b5f73ffffffffffffffffffffffffffffffffffffffff82169050919050565b5f6118cb826118a2565b9050919050565b6118db816118c1565b81146118e5575f80fd5b50565b5f813590506118f6816118d2565b92915050565b5f819050919050565b61190e816118fc565b8114611918575f80fd5b50565b5f8135905061192981611905565b92915050565b5f806040838503121561194557611944611741565b5b5f611952858286016118e8565b92505060206119638582860161191b565b9150509250929050565b611976816118fc565b82525050565b5f60208201905061198f5f83018461196d565b92915050565b5f805f606084860312156119ac576119ab611741565b5b5f6119b9868287016118e8565b93505060206119ca868287016118e8565b92505060406119db8682870161191b565b9150509250925092565b5f819050919050565b6119f7816119e5565b8114611a01575f80fd5b50565b5f81359050611a12816119ee565b92915050565b5f60208284031215611a2d57611a2c611741565b5b5f611a3a84828501611a04565b91505092915050565b611a4c816119e5565b82525050565b5f602082019050611a655f830184611a43565b92915050565b5f8060408385031215611a8157611a80611741565b5b5f611a8e85828601611a04565b9250506020611a9f858286016118e8565b9150509250929050565b5f60ff82169050919050565b611abe81611aa9565b82525050565b5f602082019050611ad75f830184611ab5565b92915050565b5f60208284031215611af257611af1611741565b5b5f611aff8482850161191b565b91505092915050565b5f60208284031215611b1d57611b1c611741565b5b5f611b2a848285016118e8565b91505092915050565b5f8060408385031215611b4957611b48611741565b5b5f611b56858286016118e8565b9250506020611b67858286016118e8565b9150509250929050565b7f4e487b71000000000000000000000000000000000000000000000000000000005f52602260045260245ffd5b5f6002820490506001821680611bb557607f821691505b602082108103611bc857611bc7611b71565b5b50919050565b7f416363657373436f6e74726f6c3a2063616e206f6e6c792072656e6f756e63655f8201527f20726f6c657320666f722073656c660000000000000000000000000000000000602082015250565b5f611c28602f83611802565b9150611c3382611bce565b604082019050919050565b5f6020820190508181035f830152611c5581611c1c565b9050919050565b7f4e487b71000000000000000000000000000000000000000000000000000000005f52601160045260245ffd5b5f611c93826118fc565b9150611c9e836118fc565b9250828201905080821115611cb657611cb5611c5c565b5b92915050565b7f45524332303a2064656372656173656420616c6c6f77616e63652062656c6f775f8201527f207a65726f000000000000000000000000000000000000000000000000000000602082015250565b5f611d16602583611802565b9150611d2182611cbc565b604082019050919050565b5f6020820190508181035f830152611d4381611d0a565b9050919050565b7f45524332303a20617070726f76652066726f6d20746865207a65726f206164645f8201527f7265737300000000000000000000000000000000000000000000000000000000602082015250565b5f611da4602483611802565b9150611daf82611d4a565b604082019050919050565b5f6020820190508181035f830152611dd181611d98565b9050919050565b7f45524332303a20617070726f766520746f20746865207a65726f2061646472655f8201527f7373000000000000000000000000000000000000000000000000000000000000602082015250565b5f611e32602283611802565b9150611e3d82611dd8565b604082019050919050565b5f6020820190508181035f830152611e5f81611e26565b9050919050565b7f45524332303a20696e73756666696369656e7420616c6c6f77616e63650000005f82015250565b5f611e9a601d83611802565b9150611ea582611e66565b602082019050919050565b5f6020820190508181035f830152611ec781611e8e565b9050919050565b7f45524332303a207472616e736665722066726f6d20746865207a65726f2061645f8201527f6472657373000000000000000000000000000000000000000000000000000000602082015250565b5f611f28602583611802565b9150611f3382611ece565b604082019050919050565b5f6020820190508181035f830152611f5581611f1c565b9050919050565b7f45524332303a207472616e7366657220746f20746865207a65726f20616464725f8201527f6573730000000000000000000000000000000000000000000000000000000000602082015250565b5f611fb6602383611802565b9150611fc182611f5c565b604082019050919050565b5f6020820190508181035f830152611fe381611faa565b9050919050565b7f45524332303a207472616e7366657220616d6f756e74206578636565647320625f8201527f616c616e63650000000000000000000000000000000000000000000000000000602082015250565b5f612044602683611802565b915061204f82611fea565b604082019050919050565b5f6020820190508181035f83015261207181612038565b9050919050565b7f45524332303a206d696e7420746f20746865207a65726f2061646472657373005f82015250565b5f6120ac601f83611802565b91506120b782612078565b602082019050919050565b5f6020820190508181035f8301526120d9816120a0565b9050919050565b7f45524332303a206275726e2066726f6d20746865207a65726f206164647265735f8201527f7300000000000000000000000000000000000000000000000000000000000000602082015250565b5f61213a602183611802565b9150612145826120e0565b604082019050919050565b5f6020820190508181035f8301526121678161212e565b9050919050565b7f45524332303a206275726e20616d6f756e7420657863656564732062616c616e5f8201527f6365000000000000000000000000000000000000000000000000000000000000602082015250565b5f6121c8602283611802565b91506121d38261216e565b604082019050919050565b5f6020820190508181035f8301526121f5816121bc565b9050919050565b5f81905092915050565b7f416363657373436f6e74726f6c3a206163636f756e74200000000000000000005f82015250565b5f61223a6017836121fc565b915061224582612206565b601782019050919050565b5f61225a826117f8565b61226481856121fc565b9350612274818560208601611812565b80840191505092915050565b7f206973206d697373696e6720726f6c65200000000000000000000000000000005f82015250565b5f6122b46011836121fc565b91506122bf82612280565b601182019050919050565b5f6122d48261222e565b91506122e08285612250565b91506122eb826122a8565b91506122f78284612250565b91508190509392505050565b5f61230d826118fc565b9150612318836118fc565b9250828202612326816118fc565b9150828204841483151761233d5761233c611c5c565b5b5092915050565b7f4e487b71000000000000000000000000000000000000000000000000000000005f52604160045260245ffd5b7f4e487b71000000000000000000000000000000000000000000000000000000005f52603260045260245ffd5b5f6123a8826118fc565b91505f82036123ba576123b9611c5c565b5b600182039050919050565b7f537472696e67733a20686578206c656e67746820696e73756666696369656e745f82015250565b5f6123f9602083611802565b9150612404826123c5565b602082019050919050565b5f6020820190508181035f830152612426816123ed565b905091905056fea2646970667358221220b7fe1bc153d97b8fbc476dfe16fd3b1e9f24cde59798e616a89ad5e976d7af9664736f6c634300081500334b494e47204d4f4e474b5554275320554e4956455253495459204f4620544543484e4f4c4f4759204e4f5254482042414e474b4f4b2e",
  "immutableReferences": {},
  "source": "// SPDX-License-Identifier: GPL-3.0\n\npragma solidity >=0.7.0 <0.9.0;\n\nimport \"../node_modules/@openzeppelin/contracts/access/Ownable.sol\";\nimport \"../node_modules/@openzeppelin/contracts/access/AccessControl.sol\";\nimport \"../node_modules/@openzeppelin/contracts/token/ERC20/presets/ERC20PresetFixedSupply.sol\";\n\ncontract KmutnbToken is ERC20PresetFixedSupply,AccessControl {\n// contract KmutnbToken is ERC20PresetFixedSupply {\n    bytes32 public constant MINTER_ROLE = keccak256(\"MINTER_ROLE\");\n    constructor(\n        address owner\n    )\n        ERC20PresetFixedSupply(\n            \"KING MONGKUT'S UNIVERSITY OF TECHNOLOGY NORTH BANGKOK.\",\n            \"KMUTNB\",\n            30000000 * 10 ** 18,\n            owner\n        )\n    {\n        _grantRole(DEFAULT_ADMIN_ROLE, owner);\n        _grantRole(MINTER_ROLE, owner);\n    }\n \n    // Allow minters to add more tokens to the contract # Smart Contract\n    function mint(address to, uint256 amount) public onlyRole(MINTER_ROLE) {\n        _mint(to, amount);\n    }\n    // Allow the owner to add minters # Smart Contract #2\n    function addMinter(address minter) public onlyRole(DEFAULT_ADMIN_ROLE) {\n        grantRole(MINTER_ROLE, minter);\n    }\n}\n",
  "sourcePath": "/Users/admin/Desktop/ProjectAll/loyaltypoints/contracts/KmutnbToken.sol",
  "compiler": {
    "name": "solc",
    "version": "0.8.21+commit.d9974bed.Emscripten.clang"
  },
  "schemaVersion": "3.4.16",
  "updatedAt": "2024-10-31T14:42:54.619Z",
  "networkType": "ethereum",
  "devdoc": {
    "events": {
      "Approval(address,address,uint256)": {
        "details": "Emitted when the allowance of a `spender` for an `owner` is set by a call to {approve}. `value` is the new allowance."
      },
      "RoleAdminChanged(bytes32,bytes32,bytes32)": {
        "details": "Emitted when `newAdminRole` is set as ``role``'s admin role, replacing `previousAdminRole` `DEFAULT_ADMIN_ROLE` is the starting admin for all roles, despite {RoleAdminChanged} not being emitted signaling this. _Available since v3.1._"
      },
      "RoleGranted(bytes32,address,address)": {
        "details": "Emitted when `account` is granted `role`. `sender` is the account that originated the contract call, an admin role bearer except when using {AccessControl-_setupRole}."
      },
      "RoleRevoked(bytes32,address,address)": {
        "details": "Emitted when `account` is revoked `role`. `sender` is the account that originated the contract call:   - if using `revokeRole`, it is the admin role bearer   - if using `renounceRole`, it is the role bearer (i.e. `account`)"
      },
      "Transfer(address,address,uint256)": {
        "details": "Emitted when `value` tokens are moved from one account (`from`) to another (`to`). Note that `value` may be zero."
      }
    },
    "kind": "dev",
    "methods": {
      "allowance(address,address)": {
        "details": "See {IERC20-allowance}."
      },
      "approve(address,uint256)": {
        "details": "See {IERC20-approve}. NOTE: If `amount` is the maximum `uint256`, the allowance is not updated on `transferFrom`. This is semantically equivalent to an infinite approval. Requirements: - `spender` cannot be the zero address."
      },
      "balanceOf(address)": {
        "details": "See {IERC20-balanceOf}."
      },
      "burn(uint256)": {
        "details": "Destroys `amount` tokens from the caller. See {ERC20-_burn}."
      },
      "burnFrom(address,uint256)": {
        "details": "Destroys `amount` tokens from `account`, deducting from the caller's allowance. See {ERC20-_burn} and {ERC20-allowance}. Requirements: - the caller must have allowance for ``accounts``'s tokens of at least `amount`."
      },
      "decimals()": {
        "details": "Returns the number of decimals used to get its user representation. For example, if `decimals` equals `2`, a balance of `505` tokens should be displayed to a user as `5.05` (`505 / 10 ** 2`). Tokens usually opt for a value of 18, imitating the relationship between Ether and Wei. This is the default value returned by this function, unless it's overridden. NOTE: This information is only used for _display_ purposes: it in no way affects any of the arithmetic of the contract, including {IERC20-balanceOf} and {IERC20-transfer}."
      },
      "decreaseAllowance(address,uint256)": {
        "details": "Atomically decreases the allowance granted to `spender` by the caller. This is an alternative to {approve} that can be used as a mitigation for problems described in {IERC20-approve}. Emits an {Approval} event indicating the updated allowance. Requirements: - `spender` cannot be the zero address. - `spender` must have allowance for the caller of at least `subtractedValue`."
      },
      "getRoleAdmin(bytes32)": {
        "details": "Returns the admin role that controls `role`. See {grantRole} and {revokeRole}. To change a role's admin, use {_setRoleAdmin}."
      },
      "grantRole(bytes32,address)": {
        "details": "Grants `role` to `account`. If `account` had not been already granted `role`, emits a {RoleGranted} event. Requirements: - the caller must have ``role``'s admin role. May emit a {RoleGranted} event."
      },
      "hasRole(bytes32,address)": {
        "details": "Returns `true` if `account` has been granted `role`."
      },
      "increaseAllowance(address,uint256)": {
        "details": "Atomically increases the allowance granted to `spender` by the caller. This is an alternative to {approve} that can be used as a mitigation for problems described in {IERC20-approve}. Emits an {Approval} event indicating the updated allowance. Requirements: - `spender` cannot be the zero address."
      },
      "name()": {
        "details": "Returns the name of the token."
      },
      "renounceRole(bytes32,address)": {
        "details": "Revokes `role` from the calling account. Roles are often managed via {grantRole} and {revokeRole}: this function's purpose is to provide a mechanism for accounts to lose their privileges if they are compromised (such as when a trusted device is misplaced). If the calling account had been revoked `role`, emits a {RoleRevoked} event. Requirements: - the caller must be `account`. May emit a {RoleRevoked} event."
      },
      "revokeRole(bytes32,address)": {
        "details": "Revokes `role` from `account`. If `account` had been granted `role`, emits a {RoleRevoked} event. Requirements: - the caller must have ``role``'s admin role. May emit a {RoleRevoked} event."
      },
      "supportsInterface(bytes4)": {
        "details": "See {IERC165-supportsInterface}."
      },
      "symbol()": {
        "details": "Returns the symbol of the token, usually a shorter version of the name."
      },
      "totalSupply()": {
        "details": "See {IERC20-totalSupply}."
      },
      "transfer(address,uint256)": {
        "details": "See {IERC20-transfer}. Requirements: - `to` cannot be the zero address. - the caller must have a balance of at least `amount`."
      },
      "transferFrom(address,address,uint256)": {
        "details": "See {IERC20-transferFrom}. Emits an {Approval} event indicating the updated allowance. This is not required by the EIP. See the note at the beginning of {ERC20}. NOTE: Does not update the allowance if the current allowance is the maximum `uint256`. Requirements: - `from` and `to` cannot be the zero address. - `from` must have a balance of at least `amount`. - the caller must have allowance for ``from``'s tokens of at least `amount`."
      }
    },
    "version": 1
  },
  "userdoc": {
    "kind": "user",
    "methods": {},
    "version": 1
  }
}